:020000041000EA
:1000000000B5324B212058609868022188439860DF
:10001000D860186158612E4B002199600221596106
:100020000121F02299502B49196001219960352056
:1000300000F044F80222904214D00621196600F024
:1000400034F8196E01211966002018661A6600F04E
:100050002CF8196E196E196E052000F02FF8012189
:100060000842F9D1002199601B49196000215960AB
:100070001A491B48016001219960EB211966A021F2
:10008000196600F012F800219960164914480160C1
:100090000121996001BC002800D000471248134993
:1000A000086003C880F30888084703B5996A0420EC
:1000B0000142FBD001200142F8D103BD02B5186610
:1000C0001866FFF7F2FF186E186E02BD00000240BE
:1000D000000000180000070000035F00212200005C
:1000E000F4000018222000A00001001008ED00E03C
:1000F00000000000000000000000000074B24E7A12
:1001000000200420F7010010C3010010C5010010F9
:10011000C1010010C1010010C1010010C101001097
:10012000C1010010C1010010C1010010C701001081
:10013000C1010010C1010010C9010010CB01001065
:10014000CD010010CD010010CD010010CD01001037
:10015000CD010010CD010010CD010010CD01001027
:10016000CD010010CD010010CD010010CD01001017
:10017000CD010010CD010010CD010010CD01001007
:10018000CD010010CD010010CD010010CD010010F7
:10019000CD010010CD010010CD010010CD010010E7
:1001A000CD010010CD010010CD010010CD010010D7
:1001B000CD010010CD010010CD010010CD010010C7
:1001C00000BE00BE00BE00BE00BE00BEEFF3058054
:1001D000103800BEF2EB8871788B0010988B0010FD
:1001E0003802001090A31AE71E481F49086006C88D
:1001F00081F3088810471D480068002801D019487D
:10020000F3E70DA40ECC002902D000F012F8F9E7B4
:100210001749184A002000E001C19142FCD116495B
:100220008847164988471649884700BEFDE701C937
:1002300001C29A42FBD37047988B0010C000002087
:100240002816002000A10010000004200000042057
:1002500000A1001000100420001004200000000085
:10026000704700000000000008ED00E0000000D032
:1002700028160020682A0220852A0010090A00108A
:100280007D2A0010F8B5C04606480749091A8B10A8
:10029000C90FC91810B5491003D0044B002B00D06A
:1002A000984710BD281600202816002000000000E6
:1002B000054B10B5002B03D00449054800E000BFF2
:1002C000FFF7E2FF10BDC0460000000078250020C7
:1002D00048830010F8B5CE4647460D2080B500F0A3
:1002E000ABFE0B2000F0A8FE0C2000F0A5FED025F0
:1002F00080232D069B016B6280231B016B62802390
:100300005B016B62FA239B0099468C4C8C4F01F089
:100310004BFD002900D1D5E0FA220023920002F023
:1003200087F806000023237080239B016B618023E4
:100330001B01AB6180235B01AB613B78002B3BD0A1
:10034000804B984609E02378012B70D02378022B4C
:1003500000D18AE03B78002B2ED02378002BF2D1FD
:1003600001F022FD002900D19DE0FA220023920035
:1003700002F05EF8744B801B9842E4D901F014FD42
:10038000002900D1AAE0FA220023920002F050F8DE
:10039000060080239B01AB6180231B016B618023DE
:1003A0005B01AB6120780321013001F0DBFFC9B2B2
:1003B00021703B78002BD0D101F0F6FC002900D150
:1003C00086E0FA220023920002F032F80600802331
:1003D0009B016B6180231B016B6180235B01AB611F
:1003E000012398463B78002B91D101F0DDFC0029D8
:1003F0007AD0FA220023920002F01AF8801B4845B6
:10040000F0D901F0D1FC00297AD0FA220023920021
:1004100002F00EF843460600002B79D180239B01A1
:100420006B6180231B016B6101239846DAE701F0C1
:10043000BBFC00293CD0FA220023920001F0F8FF17
:10044000424B801B984281D901F0AEFC002968D054
:10045000FA220023920001F0EBFF060080239B01AB
:100460006B6180231B016B6199E701F09DFC002902
:1004700023D0FA220023920001F0DAFF801B4045CE
:1004800000D867E701F090FC002950D0FA22002341
:10049000920001F0CDFF060080239B016B61802359
:1004A0001B01AB617BE7FA21890001F083FF61E763
:1004B000FA21890001F07EFFC2E7FA21890001F0EC
:1004C00079FFDBE7FA21890001F074FF060029E7D4
:1004D000FA21890001F06EFF060078E7FA21890011
:1004E00001F068FF060054E7FA21890001F062FF7D
:1004F000801B484500D875E701F056FC002984D1DF
:10050000FA21890001F056FF43460600002B85D0F2
:1005100080239B01AB6180231B01AB6100239846C4
:1005200060E7FA21890001F045FF060096E7FA210D
:10053000890001F03FFF0600AEE7C046602A0220B6
:10054000E80F002088130000983A000010270000F0
:10055000F8B50520D02400F06FFD202320250127C9
:100560002406002201210520A36200F051FD064E61
:1005700063681D42FCD13378FA207B40DBB23370D4
:1005800006F01EFBF4E7C046E80F0020F8B5DE4693
:1005900057464E4645460421E0B50A2000F01EFDB0
:1005A000FA22B54BD2009A66B44AB54F5A67B54B9A
:1005B000B54A9B461B6892461B041B0C1360B34B49
:1005C0001A6801239343B24A1360B24B9846FA2348
:1005D0009B00994601F0E8FB002900D13AE1FA229C
:1005E0000023920001F024FF04005B464A461B688A
:1005F0000126534052461B041B0C13603B78DDB2AE
:10060000002B32D043461B78DAB2012B00D1A3E095
:10061000022A00D18DE0002AF0D1002E00D1D5E0D1
:1006200001F0C2FB002900D105E1FA22002392006B
:1006300001F0FEFEFA23001B5B009842DED901F0B8
:10064000B3FB002900D198E0FA220023920001F0C8
:10065000EFFE04005B4652461B6800261B041B0C81
:1006600013603B78DDB2002BCCD13B78002BB1D1AD
:10067000002E30D101F098FB00290ED0FA22002381
:10068000920001F0D5FE001BFA280DD83B78002B14
:10069000A0D101F089FB0029F0D1FA21890001F0F5
:1006A00089FE001BFA28F1D901F07EFB002900D158
:1006B000DCE0FA220023920001F0BAFE04005B465F
:1006C0004A461B68534052461B041B0C13603B7880
:1006D000002B00D07EE7704D01F066FB00290FD0A3
:1006E000FA220023920001F0A3FE001BA8420ED8BC
:1006F0003B78002B00D06DE701F056FB0029EFD1CD
:10070000FA21890001F056FE001BA842F0D901F041
:100710004BFB002900D1A3E0FA220023920001F054
:1007200087FE04005B4652461B681B041B0C1360CB
:10073000ACE7002E27D001F037FB002976D0FA2253
:100740000023920001F074FEFA23001B5B00984224
:1007500000D974E72E0051E7002E4FD001F024FBA2
:1007600000296DD0FA220023920001F061FE001BE7
:10077000484500D963E72E0040E7FA21890001F0DF
:1007800019FE040066E701F00FFB002944D0FA22AD
:100790000023920001F04CFEFA23001B5B009842FC
:1007A00000D82BE701F000FB002921D0FA2200231A
:1007B000920001F03DFE04005B464A461B682E0095
:1007C000534052461B041B0C136017E701F0ECFA70
:1007D00000293AD0FA220023920001F029FE2F4B83
:1007E000001B984200D809E701F0DEFA0029DDD1AC
:1007F000FA21890001F0DEFD0400DDE701F0D4FA02
:1008000000290ED0FA220023920001F011FE001BF5
:10081000484500D8F2E6C5E7FA21890001F0CAFD93
:10082000BAE7FA21890001F0C5FDF0E7FA21890055
:1008300001F0C0FD88E7FA21890001F0BBFDF9E66F
:10084000FA21890001F0B6FD91E7FA21890001F053
:10085000B1FDC4E7FA21890001F0ACFD0400C4E653
:10086000FA21890001F0A6FD04005BE7FA21890066
:1008700001F0A0FD040022E700000540CF070000C2
:10088000E80F00207000054070100540640005402E
:1008900064100540602A0220D6060000DC05000036
:1008A000F0B5DE4657464E464546E0B54B4C8BB05C
:1008B00020004B4904F00EFF03210E2000F08EFBB8
:1008C00003210F2000F08AFB002201210E2000F0FE
:1008D0009FFB002201210F2000F09AFB3C234022C5
:1008E00080210194009304A8002300F0CBF804A811
:1008F00000F0E2F804A800F0C7F9002104A800F015
:1009000009FA04A800F0C0F9364B374F9B46374B25
:10091000374C9A46374B384D9946384B384E9846A7
:10092000384B03933B00474698461DE02B78DAB2DC
:10093000012B3ED0022A28D0002A12D1002104A87F
:1009400000F0E8F90A232D22594604A800F026FBFE
:1009500004A819230322514600F020FB04A800F04C
:1009600093F9C82006F02CF92378002BDED104A8D7
:10097000002100F0CFF904A814230322310000F075
:100980000DFB04A800F080F9EBE704A8002100F0BB
:10099000C1F9414604A80A231E2200F0FFFA04A868
:1009A00019230A22039900F0F9FA04A800F06CF95F
:1009B000D7E704A8002100F0ADF9494604A80A23AE
:1009C0002D2200F0EBFA04A819231422390000F0BC
:1009D000E5FA04A800F058F9C3E7C046A8100020C3
:1009E000801A06004883001078830010508300109E
:1009F000E80F002060830010602A02206883001046
:100A0000948300108483001010B582B0002402F09B
:100A100045F98022002313495200134801940094A1
:100A200005F0B6FF802200231049520010480194BF
:100A3000009405F0ADFF802200230E4952000E48BD
:100A40000194009405F0A4FF802200230B4952007A
:100A50000B480194009405F09BFF05F0ABFF00F0FC
:100A600029FBC046A483001051050010B883001074
:100A7000D5020010CC8300108D050010E08300101B
:100A8000A108001070B56B460400D00805041B7C5B
:100A9000484312020A432A431B061A43059B0130AE
:100AA000636001212260206101F076FF4023037022
:100AB0004033E060237570BD70B506000025AE239D
:100AC00082B014360400C178437532004068AC3BF4
:100AD000009504F027FE2023E178637532006068FA
:100AE0001E3B009504F01EFE0123E1786375320081
:100AF00060680133009504F015FE4023E1786375CA
:100B0000320060683E3B009504F00CFEA123E178C2
:100B10006375320060689F3B009504F003FEA823D4
:100B2000E178637532006068A63B009504F0FAFD39
:100B30003F23E1786375320060683D3B009504F027
:100B4000F1FDC823E178637532006068C63B00950B
:100B500004F0E8FDD323E178637532006068D13B8F
:100B6000009504F0DFFDE1783200606865750223CE
:100B7000009504F0D7FDDA23E178637532006068F0
:100B8000D83B009504F0CEFD1223E1786375320066
:100B90006068103B009504F0C5FDD523E1786375CE
:100BA00032006068D33B009504F0BCFD8023E178FF
:100BB0006375320060687E3B009504F0B3FDD92375
:100BC000E178637532006068D73B009504F0AAFDB8
:100BD000F123E178637532006068EF3B009504F023
:100BE000A1FDDB23E178637532006068D93B009595
:100BF00004F098FD3023E1786375320060682E3B85
:100C0000009504F08FFD8123E17863753200606800
:100C10007F3B009504F086FDFF23E1786375320089
:100C20006068FD3B009504F07DFDA423E1786375C9
:100C300032006068A23B009504F074FDA623E178C1
:100C4000637532006068A43B009504F06BFD8D2352
:100C5000E1786375320060688B3B009504F062FDBB
:100C60001423E178637532006068123B009504F04C
:100C700059FDAF23E1786375606832000095AD3BA4
:100C800004F050FD02B070BD70B5060000252123B0
:100C9000040082B01436C1784375320040681F3BAF
:100CA000009504F03FFDE17832006068657502232D
:100CB000009504F037FD2378E178013B637532003D
:100CC00060680223009504F02DFD2223E17863750E
:100CD00032006068203B009504F024FDE17832008A
:100CE000606865750223009504F01CFDA378E17827
:100CF000013B6375320060680223009504F012FD29
:100D00002369E268E1786068009504F00BFD02B0A9
:100D100070BDC0464378F0B5002B1FD007230026D6
:100D20009C460127047800291ED1002C16D063466A
:100D30003D0033409D400023ED43F2080132C4687A
:100D40000133A15CDBB22940A154047808329C42F3
:100D5000F5D801364378F6B2B342E6D8F0BD013695
:100D60004378F6B2B342F9D9002CF7D063463D0080
:100D700033409D400023F2080132C4680133A15C76
:100D8000DBB22943A154047808329C42F5D8E6E747
:100D9000F0B557464546DE464E46E0B500252039BB
:100DA000CCB2AA4695B05E2C02D8C90089B28A4658
:100DB0000124D90801310591591CC9B28946C908D5
:100DC00001310691991CC9B28846C90801310791C1
:100DD000D91CC9B28C461D1DC908EDB201315F1D79
:100DE0000291E9080131FFB29E1D0491F908013119
:100DF000F6B20191F10801310391D91DC9B28B46B8
:100E0000C908013108910721099525000B409D4033
:100E10004B460C9525000B409D4043460D95250003
:100E20000B409D4063460E9525000B409D402300DE
:100E30000F95099D0F400D40AB4009932300BB4027
:100E400027000E40B7405E4631408C4011000A93A7
:100E500008310C9BC9B28B46D9430D9B1091D943E5
:100E6000119104210E9B8C46D9430F9B1291DB43B9
:100E70000821494DB94688460B945544139354E0D4
:100E8000109F3C403470069CC7681C193E193C5D9D
:100E900002270F4200D07AE0119F3C403470079C3B
:100EA000C7681C193E193C5D67460F426BD1129F03
:100EB0003C403470029CC768E4183E193C5D4746CC
:100EC0000F425CD1139F3C403470049CC768E41807
:100ED0003E193C5DCF064ED4099FBC433470019C43
:100EE000C768E4183E193C5D8F0640D40A9FBC4396
:100EF0003470039CC768E4183E193C5D4F0632D439
:100F00004F46BC433470089CC668A24649B253445D
:100F1000F418F35C002916DB0B9901328B43237024
:100F20005B46D2B20135934216D0059CC768D30008
:100F30001C193E193C5D012729780F42A0D00C9F57
:100F40003C43E4B29EE70B9901320B4323705B46AE
:100F5000D2B201359342E8D115B0F0BCBB46B246DF
:100F6000A946A046F0BD4F463C43E4B2CAE70A9FFB
:100F70003C43E4B2BCE7099F3C43E4B2AEE70F9FB9
:100F80003C43E4B2A0E70E9F3C43E4B291E70D9FDF
:100F90003C43E4B282E7C0469C850010F8B50700E8
:100FA0000E0014001D0014E0220008342B0038004D
:100FB000E4B2FFF7EDFE22003B78083201369A4298
:100FC00002DB00240835EDB22B007A780833934217
:100FD00002DA31780029E7D1F8BDC046094A83001A
:100FE0009A1810B514684022544080322240064CB2
:100FF000C000A44663441A60044B9C4660444160B0
:1010000010BDC04604C0014004D001400040014072
:10101000074B8000C3181B68C90092000A435A405E
:101020000C231340034A9446604403607047C04653
:1010300004C0014004D001400123D02283401206A5
:1010400093629361094A83009A18116840225140C3
:1010500080320A400649C0008C4663441A60054B42
:101060009C460523604443607047C04604C001406D
:1010700004D00140004001408023DB051868000FC8
:101080007047C0460FB400B5084883B001F054FE65
:10109000049B002B07D005A91800019101F0BAFCB0
:1010A000034801F049FE012001F0CCFCF48300105C
:1010B0000484001010B50148FFF7E4FF0884001015
:1010C00070B5EFF3108C72B60D4D2B68002BFCD071
:1010D000BFF35F8F0724CB08C618C05C01230C4008
:1010E000A3401C000440034207D118433070BFF3F3
:1010F0005F8F2C608CF3108870BD1000FFF7C2FF6B
:101100002C0100D0F8B54746CE46884680B5EFF3AF
:10111000108C72B61C4D2C68002CFCD0BFF35F8F76
:101120009A4222D807210126894602E001329342E1
:1011300018D34D4637001540AF40D4080119045D5F
:101140002742F3D110003C430C70BFF35F8F0022A5
:101150000D4B1A608CF3108800280EDBC0BCB9461A
:10116000B046F8BD01204042EFE7BFF35F8F002398
:101170002B608CF31088012040424346002BEDD0B9
:101180000898FFF77FFFC0462C0100D0044A107872
:10119000431CDBB2172B00D9102313707047C046D5
:1011A000E90F002010B5064B064C82B001000093F9
:1011B00018221F232000FFF7A5FF02B010BDC04674
:1011C00018840010002100200021044B044ABFF3C2
:1011D0005F8F02C39342FAD17047C046000100D02E
:1011E000800100D0054B064A1360064A1360536025
:1011F0009360D360136153619361704780808080F6
:1012000000E400E004E400E01F2318401E3B83409C
:10121000002905D0C021044A49005350136070478B
:10122000802201498B50FAE700E100E00122824070
:10123000034B1B6813405A1E9341D8B27047C046F7
:1012400000E100E001238340014A13607047C0467B
:1012500000E200E0064B10309B688000C358054A4E
:1012600000209B1A2F229A424041C0B27047C046CC
:1012700000ED00E0EC0F002070B50D00EFF31086DC
:1012800072B60F4A1368002BFCD0BFF35F8F0D4B73
:1012900010309B6884001B590B4A934203D09D4237
:1012A00001D000F081FF074B9B681D51BFF35F8F9A
:1012B000BFF35F8F0022024B1A6086F3108870BD67
:1012C000240100D000ED00E0CD010010F0B557463C
:1012D0004E46DE464546E0B585B006000091170053
:1012E000EFF3108B72B66A4A1368002BFCD0BFF381
:1012F0005F8F0025674B5D579A46002D00DAA9E005
:101300006B00654C01935B199B009846A146C14454
:101310004B4652469B7910361370604BB6009B6863
:1013200099590B1B2F2B33D95D4B994200D0ACE060
:10133000019B42469C465B4B6544AD0063535A4B50
:101340000232A218043B9B1A1B05584A5B0D651913
:1013500013436B80564B0121AB80FF23AB71009B85
:10136000EF71AB604B460B4319004C4B9B68995196
:10137000BFF35F8FBFF35F8F0022454B1A608BF383
:10138000108805B0F0BCBB46B246A946A046F0BDE9
:1013900001200A008243D3798C46BB4231D84546AE
:1013A000130044491B1B5B415943090D3D4B6353DB
:1013B0003D4B02356519043B5B1B1B053B4D5B0D2B
:1013C0002B43AA464D466B800425AC465546E04467
:1013D000131F44441B1B1B055B0D1D434B4699719A
:1013E00000999D8099604946DF71334B014313603A
:1013F000BBE75800C01880002018C179B9422FD926
:1014000002000623D356002BF3DA02932B4B6146DE
:101410000393131D9A4604235B429C46E1445046C5
:101420004B461B1A1B055B0D9C46204B957198463D
:101430006346404603439380019B5A199200039BE5
:10144000A418A380029B1C4AA371009B2260E77131
:10145000A3608AE700F0A8FE002553465D574FE7DA
:10146000908802934005131D9A46031561469C46D9
:101470004046D444634604302018181AE02300057F
:10148000400D1B0218430390C5E700F08DFE4FE7A7
:10149000240100D0612A0220EC0F002000ED00E0C2
:1014A000CD01001000A1FFFF1C10002000E0FFFF95
:1014B00001BDFFFFAAAA00000148804701BD00004E
:1014C00010B58308040003202040FF24054AC00013
:1014D0009446844081409B0063441A68A2430A43B7
:1014E0001A6010BD00E400E070B501240443EFF37E
:1014F0000581EFF3108C72B6214A1368002BFCD0E3
:10150000BFF35F8F1F4B05001F4AED1A6D416A4301
:10151000120D1E4D8900AE6852B27658A6421CD0FC
:101520000621595691421CD012215956914222D07F
:101530001E215956914220D02A2159560324914206
:1015400010D0134B19781A708171BFF35F8F00228E
:101550000B4B1A608CF3108870BDAB680D4C5C505F
:10156000EFE700246100091989005B18FF219971D8
:1015700009499980E5E70124F4E70224F2E7C0462F
:10158000240100D0EC0F0020AAAA000000ED00E02A
:10159000612A0220CD01001001BDFFFF10B5084BEC
:1015A000084C82B001000093002205232000FFF7C1
:1015B000A9FD002801DB1F23181A02B010BDC04688
:1015C00034840010652A0220024B9C466144890045
:1015D0000160704740000034F8B5124C124DAC4227
:1015E00012D20126002776422368002B0DD0FFF788
:1015F000CDFD01002000FFF7E7FF66602772BFF313
:101600005F8F0C34AC42EFD3F8BDFFF7BFFD010094
:101610002000FFF7D9FF6660BFF35F8F0834AC424C
:10162000E2D3F1E7181600202816002010B50400B8
:10163000FFF7ACFD01002000FFF7C6FF01235B426E
:101640006360BFF35F8F10BD10B504000120FFF78A
:10165000A9FD034BC3189B002360BFF35F8F10BD30
:1016600040000034034B9C46614489000160BFF395
:101670005F8F704740000034F0B5DE4657464E4657
:101680004546E0B587B0EFF30583032201251A40F4
:10169000954091008846A946B34B03925C58B34BE2
:1016A0001D60B34B04934B46B24843630823E55E89
:1016B000002D37DAA3881BB2002B00DBADE0A37945
:1016C000002B00D0EEE00823E05E002820DB430082
:1016D00062691B18DB00D3189E68DD68731C00D19B
:1016E00011E1A44801004144826A0B69B71A9B1AB0
:1016F0009F4215D30123026A039883401A420FD0F8
:101700009C4800F049FB8D4202DCCCD18642CAD90C
:1017100040BF07B0F0BCBB46B246A946A046F0BDEC
:101720000E61EDE762696B0092465B19DB009A443B
:1017300053469E68DF6800F02FFB8F42BADC00D171
:1017400003E1002F00DAE8E05246534652691B6974
:101750009346049A934200D1D9E052460821605E34
:10176000528800045946104398470090019100990F
:10177000019A0B001000134300D1CEE013000A00C1
:10178000B61A9F41002806DB7A4800F005FB009E50
:10179000019F36184F4153469E60DF6000229A5EDB
:1017A000002A00DA86E7530099186069C9004118D9
:1017B00002938B68C9689B46B94200DD7AE702D183
:1017C000B34200D976E708239C46A44405956546B4
:1017D0002281A446029B2C0006E053009918C90000
:1017E00041188D68C968AB469B18DB00C318B94225
:1017F00006DC00D1B3E01C000023E25E002AECDA34
:10180000230064469C4653461A806346059D1D800E
:10181000A3881BB2002B00DA51E72269EFF3108195
:1018200072B61368002BFCD0BFF35F8F0123A7882B
:101830005B42A3803FB22369BFF35F8F00221A602F
:1018400081F31088002F00DA39E7230008332200E3
:101850009A4666697B00DB19DB00F31899685046ED
:101860008C460824115FDD68002910DB029306E036
:10187000AB4244D00023E15E2000002906DB4C008F
:101880006418E4003419E368AB42F1DD029B078081
:1018900000201F5E1980002FDCDA1400A379002BD2
:1018A00000D110E70023A37126000823E15E08366B
:1018B0004B1C00D12CE70800A246656902E03E00FF
:1018C0004B1C1AD04B005B18DB00EF180A008C464B
:1018D000E95E7B881BB2002BF1DA01235B42DC1747
:1018E000BB60FC60824205D0534631801B893B803F
:1018F00053461A8160464B1CE4D15446E5E6A36882
:101900006345B7D9C2E76B1C00D0EAE6F8E65B4650
:1019100058461B69984700281BD153461B882269EB
:101920002381EFF3108372B611680029FCD0BFF356
:101930005F8F514662880A8022696580BFF35F8F9E
:101940000021116083F31088B4E6864200D8F8E6DF
:10195000B0E65B461A685B680092019307E7B345FF
:1019600000D848E74CE7C046982500203C70054069
:101970007916001000400540074810B50268EFF3E3
:10198000108172B61368002BFCD0BFF35F8F04F098
:1019900069F80020002110BD5029002070B52E4CA0
:1019A0002569002D04D00A212C48FFF70DFE70BDDB
:1019B0002B4E0321300000F0E5F9E660FFF7E6FB6F
:1019C000284B03229C46D02322701B061B68012152
:1019D0006370254B6044A3600F23800020610220C8
:1019E000638063694942A1801980023119864731B9
:1019F0001D83585218315A5275325C399952183237
:101A000001319952183201319952183201319952EB
:101A1000083518329D52023118329952183201316C
:101A200099521832013199521832013199521832B3
:101A3000013199521832013199520C4B0C49DC603A
:101A400001303562FFF718FC01210320FFF7DCFBB2
:101A5000084B1D60A7E7C046341000205029002025
:101A60000040054040000034FFFF10009825002092
:101A70007916001038600540004870473410002087
:101A8000F8B51F0008AB1B7804001600002B08D126
:101A900000F08AF932003B00121A8B41002B00DA69
:101AA00052E02269EFF3108072B61368002BFCD06D
:101AB000BFF35F8F0223E15E63694A005218D200D0
:101AC0009B182269002936DB1D886580BFF35F8F74
:101AD0000025156080F31088069A9E60DF601A6109
:101AE000079A5A615A8801325204520C101C002A7B
:101AF0001FD082B25880080410432669EFF3108784
:101B000072B63268002AFCD0BFF35F8FA2881A80B9
:101B1000A1802369BFF35F8F00221A6087F31088CA
:101B20000A4923788C4601329A40E36863441A607C
:101B3000F8BD0120DDE7BFF35F8F0023136080F362
:101B4000108801204042F3E70020F1E73C2000002C
:101B500070B501000469EFF3108C72B6206800289C
:101B6000FCD0BFF35F8F02200D5E4C696800401906
:101B7000C00024180869002D36DB26884E80BFF38C
:101B80005F8F002606608CF31088E36063880498FA
:101B9000013320615B0405985B0CA26060611A1C34
:101BA000002B1FD093B22804628018430A69EFF318
:101BB000108C72B61368002BFCD0BFF35F8F8B883C
:101BC00023808D800B69BFF35F8F00221A608CF336
:101BD00010880B7801329A40CB6808498C466344E0
:101BE0001A6070BD0122DDE7BFF35F8F0023036041
:101BF0008CF3108801204042F3E7C0463C200000EF
:101C000010B543890A1493421ADD53009B184269A8
:101C1000DB00D3180469EFF3108C72B62268002A37
:101C2000FCD0BFF35F8F5A88090494B2090C8A4232
:101C300008D00369BFF35F8F00221A608CF310880D
:101C4000002010BD8022120214435C80012302692F
:101C50008371BFF35F8F002111608CF310880449FA
:101C600002788C469340C268012062441360E8E722
:101C70003C20000040787047F0B557464E46DE469F
:101C80004546E0B506000F0085B0EFF305839946A1
:101C90008B46002B12D0384900204B6ABB4206D33A
:101CA0008A6ADB1B591E8B41B2424041184305B082
:101CB000F0BCBB46B246A946A046F0BD2F4B9A46A3
:101CC000DB68984653461B784046039300F064F85F
:101CD0004246039B040004339B009B580D001B1AD3
:101CE00039003000001BA941894510DC0DD020BF10
:101CF000214A0020536A5B45D9D3926ADB1B591EE7
:101D00008B41B24240411843D1E78342EFD900F002
:101D10004BF832003B00121A8B41002B1ADB0023D8
:101D20000193174B3200009350463B00FFF710FF22
:101D3000011E0FDD104B5A6A5A451BD39B6AB342F2
:101D400016D35046FFF75CFF0B4A0020536A5B45F1
:101D5000ADD3D2E7084A0020536A5B45A7D30020E1
:101D6000926ADB1BB24240415A1E934118439EE7E0
:101D70005A45E6D120BFE4E700400540341000207A
:101D80007919001010B5024A0248FFF799F910BD01
:101D900050840010042100200300416A0A00986A60
:101DA000596A8A42FAD17047034B596A0A00986A05
:101DB000596A9142FAD1704700400540F8B5DE46B5
:101DC0004E4657464546E0B58B4605000A99180031
:101DD000160000F0EFFA0A9B6C001F02324B6419E8
:101DE0009C46A4006444636881469F4200D96760B2
:101DF0002B1FDBB29846012B30D9C02380229B01D8
:101E0000E31812011A60294BAD0059599A4600296E
:101E10001BD17301E026226853401E4080234246B6
:101E20005B01E3181E60012A30D9802380229B01C8
:101E3000E31812011A6053464A4667605A51F0BCD3
:101E4000BB46B246A946A046F8BD586900F0B2FAB2
:101E5000013043001B18033BFDD2DAE75B46012B40
:101E6000CBD1C02303229B01E3181A60023AA36876
:101E70001A42FCD07301E0262268AD0053401E4098
:101E800080230A4A5B019246E3181E605A46216885
:101E9000514003220A401A6001225B469A40A3681F
:101EA0001A42FCD0C1E7C046008000400821002053
:101EB000F0B546464F46D646C0B51F00344B4400E9
:101EC0009C462418A4006444636888461600FF2BCF
:101ED00002D880235B006360031FDBB29A46012BAC
:101EE00030D9C02380229B01E31812011A60294BCC
:101EF00085005959994600291BD17301E0262268B3
:101F000053401E40802352465B01E3181E60012AA5
:101F100030D9802380229B01E31812011A608023AC
:101F20005B0063604B465F51E0BCBA46B146A846D1
:101F3000F0BD586900F03EFA013043001B18033B26
:101F4000FDD2DAE74346012BCBD1C02303229B010C
:101F5000E3181A60023AA3681A42FCD07301E02623
:101F60002268850053401E4080230A4A5B01914647
:101F7000E3181E6042462168514003220A401A605D
:101F8000012342469340A2681342FCD0C1E7C046F9
:101F90000080004008210020014B8000C05870479D
:101FA00008210020F8B5040021481E0017000D008C
:101FB00000F000FA0100380000F0FCF9069B36043E
:101FC0001B031E432368002B20DB1A4B1A49E3181E
:101FD0005A1E93418022920194465B421B0B174A82
:101FE0001B0363441360164A13601F000A6897437B
:101FF000FBD1144B2560E2182123A06013602368F5
:10200000002BFCDA0823E6601360F8BD3F2322684A
:102010001340AB42D9D1A3681B051B0D8342D4D119
:10202000EE22E368D2021340B342CED1EDE7C046C0
:10203000001BB7000040FDBF08C0004000E00040AA
:1020400000F000400430000010B580241C4BE40573
:102050001C6000281AD001231A4C18431A4BDC616B
:102060001A4C44401C62596298628021144BC90585
:102070001960174817490860E021C9041960002A4F
:1020800007D18022144B12061A6010BD0E4BD86186
:10209000EBE753019B1A9B009A18802312015B0403
:1020A0009A4209D213000D490B60074B5A608022F7
:1020B000094BD2051A60E8E7094B1A00F3E7C0465E
:1020C00000B00540D3C007B0008005402D3FF84F59
:1020D000FCFF01000820014000A005407025002001
:1020E000FFFFFF008023024A9B000B43D36270472F
:1020F00000800540002310B50100988A1B8B98478B
:1021000010BDC046162310B50100188802331B8885
:10211000984710BDF8B54746CE4680B50F1E18D07B
:1021200014239946043304000025012698464B46A3
:102130001888434621681B88984701C4431E98416C
:1021400001350640AF42F2D13000C0BCB946B046BE
:10215000F8BD0126F8E7C046002370B504000D0065
:10216000988A05491B8B984703000020002C01DB4F
:102170000130A0402900984755420000AA23064A92
:102180001B0113608D235B00D3600449044B19606D
:102190005368002BFCDA70470040024000B0FA00A0
:1021A000006002407047C04610B50148FEF76AFF64
:1021B0007484001070B5074D074EB54209D2002453
:1021C000013E761BB60808CD984723000134B34280
:1021D000F9D170BD008300103C830010054B064A06
:1021E00006491A60064A074B1A6010000B689843AC
:1021F000FBD1704700E00040BFCDFBFE08C00040AF
:10220000FE7F3C0000F00040044BDB6C002B03D150
:102210008022034BD2021A607047C0460000115062
:102220004C201150044A054B1A60054A1368DB0123
:102230008033FBD17047C046FFFFFF0100F0004034
:1022400008C000404022034B9A675A671A67DA6653
:102250007047C04600F0014010B5FEF7B5FF10BD55
:1022600070B5044D044CA968C022200000F0C4FBE6
:10227000AC6070BD00ED00E000000020002310B550
:10228000294C82B0A367FFF779FF0122274B1A6020
:10229000636C012BFCD10322254B1A60224A936BFD
:1022A000012BFCD1013300930121224A224804333F
:1022B000FFF778FE052301210093204A2048FFF70D
:1022C00071FE0022022104201E4BFFF7F1FD0022C7
:1022D000012105201C4BFFF7EBFD00220021072008
:1022E0001A4BFFF7E5FD002200210820174BFFF7EE
:1022F000DFFD8023DB000093002200210920134B27
:10230000FFF75CFD0022104B00210620FFF7D0FDF7
:102310000420FFF741FE0E4900F04CF801000020B8
:10232000FFF7E0FE02B010BD008000403CB000406E
:1023300030B00040002F685900800240008C864772
:1023400000C00240001BB70040597307006CDC025C
:1023500040420F0001480421014B18475010002053
:1023600015210010124A936F9B0815D29066D16612
:10237000002905D0FFE7FFE7FFE7516F106F7047B7
:1023800004B580210906C2175140002800D0C84377
:1023900005F07EFF002104BDF0B5146E556E576F39
:1023A000166FFFF7E3FF1466556657671667F0BDB3
:1023B000000000D0114A936F9B0813D2106651663B
:1023C000002905D0FFE7FFE7FFE7516F106F704767
:1023D00004B5002801D00020C04305F059FF0021BA
:1023E00004BDC046F0B5146E556E576F166FFFF7FB
:1023F000E5FF1466556657671667F0BD000000D00C
:1024000094464A4A926F9208624601D228E0C0463A
:10241000F0B5464E346E756E776F366F00F020F86B
:102420009446424A14665566576716676246F0BD81
:1024300094463E4A926F9208624601D254E0C046EA
:10244000F0B53A4E346E756E776F366F00F04CF81B
:102450009446364A14665566576716676246F0BD5D
:10246000002B24DB11D000293EDA00B5C9434042DD
:1024700000D1013100F038F8C943404200D10131A8
:10248000DB43524200D1013300BD002AEBD10028CA
:1024900001D1002905D00020C90FC90701D1C043CF
:1024A000410800B505F0E4FE0022002300BD00B5A0
:1024B00000290ADBDB43524200D1013300F014F85B
:1024C000C943404200D1013100BDC943404200D15F
:1024D0000131DB43524200D1013300F005F8DB4308
:1024E000524200D1013300BD002923D1002B18D165
:1024F000002A0CD0BC460D4F38667A6600210023B6
:10250000FFE7FFE7FFE77A6F386F674670470028FD
:1025100001D00748010000B505F0AAFE0022002303
:1025200000BD02000B00002000217047000000D019
:10253000FFFFFFFF002B00D0BFE0130C28D1002AC3
:10254000E7D080B4114F39667A66FFE7FFE730B411
:10255000040C7B6F396F1B0423433B667A66FFE7ED
:10256000FFE7FFE7C04684B27B6F3D6F1B04234348
:102570003B667A66FFE7FFE7C04600232C042D0C7C
:102580007A6F386F00196941B0BC7047000000D005
:10259000F0B594460025140E01D112020835140F2F
:1025A00001D112010435940F01D192000235D40FEC
:1025B00001D152000135D40B0134254F7C66254CE6
:1025C0003C660E0C93B2FFE7FFE7FFE73C6F664304
:1025D000360C7703BE467343DF0B5B04C01AB94168
:1025E000130C7343DB18C91ACE086643360CB64485
:1025F00093B273431F0F1B01C01AB941130C7343ED
:102600001F0B1B05C01AB941860D8F023E4366435E
:10261000360C092D24DB520A7243801A7703460ACE
:102620006643360C16235B1BDE40DF40BF19644651
:102630006643821B7046043506330100D940A8402A
:10264000C01900D30131A24206D20023F0BD000020
:10265000000000D0FFFFFFFF121B0130F3D3F1E7B2
:1026600009277F1BFE406446A2B27243801A00D243
:102670000139220C7243130C1204821A99410B0087
:102680007046043513370100F940A840801900D383
:102690000131002B02D1A2420AD2F0BD013000D399
:1026A0000131121BFAD2013BF8D1A24200D2F0BD97
:1026B000013000D30131121BF7E7F0B51C0C00D03C
:1026C00080E00CB400251C0A04D11B02160E334313
:1026D000120208351C0B04D11B01160F33431201E3
:1026E00004359C0B04D19B00960F334392000235B6
:1026F000DC0B02D192185B4101351C009718644134
:102700000134464F7C66464C3C660E0CFFE7FFE703
:10271000FFE7C0463C6F6643360C7703BE4697B270
:102720007743C01B00D20139C01B00D201399FB2D0
:102730007743C91BC91B170C77437E04FF0B801B13
:10274000B941CE086643360C0C2D33DBB644120B70
:102750001F053A431B0B97B27743C01B00D20139C8
:102760009FB27743C91B170C77433E043F0C801B75
:10277000B941860D8F023E43664329277F1BFE40E9
:102780000C3D7746AF40BF1930BCA2B2ABB272432A
:102790007343801A9941220C7243130C1204801A5D
:1027A000994102000B000137001BA941F9D2781EA4
:1027B0000021F0BD0C277F1BFE4077467F0BAF400A
:1027C000FF19E0E700245D1C07D0144F7D663966D1
:1027D000FFE7FFE7FFE7FFE73C6F95B29EB2654377
:1027E0006643401BB141150C1E0C6543664336041D
:1027F0002F0C3E432D04401BB141994204D20200EC
:102800000B0020000021F0BD01D19042F7D3801AC7
:10281000994101349942F2D3F6E70000000000D05C
:10282000FFFFFFFF10B50148FEF72CFC808400106D
:10283000132370B51D78012D19D014DD1D48FFF745
:1028400061FC06001C48FFF75DFC1C4C8022310037
:10285000200000F0D1F8022D06D01948FFF74AFCFD
:10286000184B186070BD154C174BA364F5E7174B58
:10287000124C23606360A360E36023616361A36122
:10288000E36123626362A362E36223636363A3631E
:10289000E36323646364A364E36423656365A365FE
:1028A000E36523666366A366E36623676367A367DE
:1028B000E367D9E75344000053460000B0170020F7
:1028C0004C3300004C280020D1280010252800108F
:1028D00007B5604601880A0A0230DF2AFAD1C9B278
:1028E000820804D3028840880004104300E0006896
:1028F000014A5050039007BDB01700205143434395
:10290000C9188C46110C83B24B4310B4040C6143BC
:1029100092B280B2504362431C041B0C001910BCDD
:1029200059411304120CC018514161447047000012
:1029300010B50148FEF7A6FB80830010132310B5E5
:1029400010481C78FFF7DEFB0100012C0AD003DDE4
:1029500080220D4800F050F80C48FFF7CBFB0C4BE1
:10296000186010BD084C5422200000F045F82200E9
:10297000084980322368002B00D12160043494423E
:10298000F8D1E9E753460000502800204C330000FE
:102990004C28002031290010F8B506000C000C4F1F
:1029A000380005F0A5FC2100300004F03FFF0500D1
:1029B000380005F055FC7443002D05D0054B2C194B
:1029C0009C4201D82800F8BD0348FEF75BFBC046D7
:1029D00018160020000004209884001001480421EB
:1029E000014B18476010002015210010014B1B6897
:1029F0001847000060100020014B5B68184700007A
:102A00006010002010B5002800D110BD00F04AF978
:102A1000FBE7C04610B5094A0300146884B0002CD7
:102A200008D0012200910648524203A9A047012084
:102A300004B010BD00F080F90020F9E76C250020FB
:102A4000052A001000BEFDE7094A030010680028AF
:102A500005D00849C3188B4207D813607047064851
:102A60000449C31810608B42F7D901204042F5E7B2
:102A70006821002000000420682A022010B5FFF71A
:102A8000E1FFC04670B5FFF795FB074D074EB54215
:102A900009D20024013E761BB60808CD98472300D2
:102AA0000134B342F9D170BD3C830010488300105B
:102AB000030010B5080011001B68984710BDC04600
:102AC000F0B5C64600B5437D07000C001600002B8C
:102AD00046D0002A17DD0B780A2B24D00023984615
:102AE000012E13D001252900635C01350A2B26D065
:102AF000B542F8D1464509DCA419013C23780D3BC9
:102B00005A4253413B7580BCB846F0BD4346E0187D
:102B1000A419F11A013C3B68984723780D3B5A42AF
:102B200053413B75EFE7037D002BD7D102210F48BE
:102B30003B689847012EDFD001239846D2E7631EF9
:102B40005B5C0D2BD4D0884504DA4346C91AE018E3
:102B50003B689847022105483B68A8469847C7E765
:102B60000368110020009847CDE7C046E8880010B0
:102B7000F0B54546DE464E465746E0B583B0914631
:102B80001C0080460D00FFF70FF90023304A121891
:102B90004B41002B02DA01222E4B52422E490800F3
:102BA0008A4605F08DFB07006B1C03D1404605F0FB
:102BB000BDF90500002C27D0284E294B1C68002C9D
:102BC00018D04B46002B21D1264B994602E02469B0
:102BD000002C0FD02368002BF9D04B461B68002B2C
:102BE00001D09C42F3D120002A004146B04724691D
:102BF000002CEFD1002F26D1280003B0F0BCBB463B
:102C0000B246A946A046F0BD174ED6E7154B9946E9
:102C10000A239B4602E02469002CEBD02368002B9A
:102C2000F9D04B461B68002B01D0A342F3D12A00F8
:102C300041462000B0476B465A462000DA71D91D44
:102C40000122B047E7E7504605F00AFBD4E7C0464B
:102C500040420F00FFFFFF7F20160020C12A001016
:102C60005821002064210020B12A00100A4A13686C
:102C7000002B05D10CE01A001B691032002B07D085
:102C80008342F8D1002902D1186910601961704798
:102C90000029FCD01060FAE75821002010B500F0A0
:102CA0007FFA10BDF0B5CE46474680B583B06B467F
:102CB0000600DD1D2870FFF777F80023194A121867
:102CC0004B41002B02DA0122174B524217490800F0
:102CD000884605F0F5FA164B81461C68002C14D086
:102CE000144F02E02469002C0FD02368002BF9D088
:102CF0003B68002B01D09C42F4D120000122290026
:102D0000FFF7DEFE2469002CEFD14B46002B05D1E6
:102D1000300003B0C0BCB946B046F0BD404605F037
:102D20009FFAF5E740420F00FFFFFF7F20160020CB
:102D3000582100206421002070B5040005F0F6F849
:102D400001230100050001222000FFF711FF084BBD
:102D50001C68002C06D06368002B05D098472469B6
:102D6000002CF8D1280070BD2469002CF3D1F9E7BC
:102D7000582100207047C0460022014B1A7070474E
:102D8000622A02204B790020FF2B0BD18B79002B7C
:102D900008D1CB79012B05D1082A03D9024B8A78B7
:102DA00009301A707047C046622A0220012070471D
:102DB00010B5012913D112495379107909781B02F2
:102DC00003430020994200D010BD5378012B08D056
:102DD000022BF9D1642200210020FFF735F90120F0
:102DE000F2E7D37891781B021943480ADB0501D436
:102DF000012040427F238A05D20F1940FFF7ACF92A
:102E0000622A022000487047B489001070B505009E
:102E100014000120012909D153780020012B05D18C
:102E2000637912791B021343072B00D070BD210078
:102E30002800024A9F3301F055FAF7E70C89001089
:102E40000123037000487047EC8800104B780A7823
:102E50001B0213438A7810B512041A43CB781B0661
:102E600013439622D200934200D010BD00220120CD
:102E700011004042FFF770F9024B1860024B1960D5
:102E80007047C046F8200020FC20002010B5024BFF
:102E90001878FEF7D7F910BD632A0220154B70B5DC
:102EA0001A68002A22D0EFF3108172B61068002849
:102EB000FCD0BFF35F8F00200F4A596010701B6871
:102EC000BFF35F8F186081F31088002400250B4E3C
:102ED0003078FEF7ABF9002804D100240025290042
:102EE000200070BD3078FEF7ADF9F8E7FA24002530
:102EF000A400ECE790250020642A0220632A022027
:102F000070B5040000200E0001F00AFB002834D048
:102F1000002001F01BFB00282FD0FEF745FF002307
:102F2000174A12184B41002B16DB164D280005F0EE
:102F3000C7F9002821D0002001F0F2FA00280FD1B3
:102F400001200021404200F001FD032464422800DA
:102F500005F086F9200070BD01220B4B5242E4E7D8
:102F6000002001F0F3FA0028EAD02100320000200E
:102F700001F0F6FA041EEAD1E7E703246442E9E728
:102F800040420F0054290020FFFFFF7F10B5FEF7DD
:102F90000BFF00230D4A12184B41002B02DA0122CD
:102FA0000B4B52420B4C200005F08AF900280CD044
:102FB00001200021404200F0C9FC002001F014FB78
:102FC0000028F5D1200005F04BF910BD40420F005C
:102FD000FFFFFF7F54290020F8B5DE46574680B535
:102FE00005000C00FEF7E0FE0023364A12184B41A4
:102FF000002B02DA0122344B5242344908008A463F
:1030000005F05EF9002803D1C0BCBB46B246F8BD4E
:10301000002001F085FA00284AD00026002C43DD6C
:103020002B4B9B4614E0A919002001F017FB070069
:1030300001200021404200F089FC002001F0D4FA78
:10304000FEF7B2FE224BF61918605960B4422BDD30
:10305000002001F023FBA71B0200B84200DD3A006C
:10306000002AE0D101200021404200F06FFC002046
:1030700001F0BAFA002001F053FA002814D0002021
:1030800001F00CFB0028E1D1FEF78EFE5B460F003D
:103090001A685B68002184460E4812184B419F4213
:1030A00002D8D3D19445D1D9504605F0D9F8ABE731
:1030B00000200021064B18605960504605F0D0F8FA
:1030C000A2E7C04640420F00FFFFFF7F54290020C7
:1030D000A817002020A1070030B52A4C85B0002198
:1030E000200005F0DDF800281CD1274B1A68002AC3
:1030F00016D0EFF3108172B610680028FCD0BFF331
:103100005F8F01242148596002781B68D2B2047095
:10311000BFF35F8F0020186081F31088002A17D05A
:1031200005B030BD01200021404200F00FFC00201E
:1031300001F00CFA0500200005F092F8002DEFD008
:10314000134B1B68002BEBD0124A10689847E7E737
:10315000FEF792FC0400FEF727FEFA2200239200FD
:1031600012184B41002B02DA01220B4B5242012173
:10317000029100210191094920000091FEF780FC95
:10318000CEE7C0465429002090250020642A022062
:10319000F8200020FC200020FFFFFF7F9D2E001064
:1031A000D02310B51B0684B01C68FEF765FCFEF743
:1031B00061FDA04202D0002004B010BD294B0021C7
:1031C00000201B7801F05EFD27480368002B45D0E6
:1031D0000120FEF7E3F9FF23244C25492070184015
:1031E000FEF74AF820780121FEF70EF80520FEF7D9
:1031F00031F8002824D1082200211E48FFF7F6FBF1
:10320000FEF73AFC0400FEF7CFFDFA2200239200FD
:1032100012184B41002B02DA0122174B52420121B6
:10322000029100210191154920000091FEF728FC30
:103230000028C0DB12480121FFF718FD0120BBE781
:103240000120FDF7AFFF0B4B01001800FEF70AFA53
:10325000002205200B49FEF739F8EBE7FEF7E6F907
:10326000B6E7C046948B001054290020632A022040
:10327000D930001090250020FFFFFF7F9D2E001009
:10328000701000208D2E001000487047508A0010EA
:1032900000487047FC89001010B5040017480378F7
:1032A000002B20D0002C06D1154B16484380063B3E
:1032B000FF3B038010BD052C1DD8134BA400E05824
:1032C00012490123013804E001330A800231142B32
:1032D0000DD0C25C002AF7D1C022DBB25B009200A5
:1032E00008481343E5E7112100F01AF8DAE7CA238A
:1032F00004489B00DDE70020DCE7C0465C29022093
:103300000904000030210020E4890010322100204F
:1033100010B5024800F0D8F810BDC046442800207F
:1033200030B54B1E012900D1A7E0664A11780D097E
:103330002C0030349F2900D9A2E00470012B00D169
:10334000BEE00F21147821400C003034092900D947
:1033500098E04470022B00D1B2E05478250929008E
:1033600030319F2C00D990E08170032B00D1A7E071
:103370000F2121400C003034092900D987E0C470A6
:10338000042B00D19CE094782509290030319F2C32
:1033900000D97FE00171052B00D191E00F21214080
:1033A0000C003034092900D976E04471062B00D195
:1033B00086E0D4782509290030319F2C00D96EE0B1
:1033C0008171072B00D17BE00F2121400C003034AC
:1033D000092966D8C471082B00D171E01479250938
:1033E000290030319F2C5FD80172092B68D00F2142
:1033F00021400C003034092958D844720A2B5FD080
:1034000054792509290030319F2C52D881720B2B19
:1034100056D00F2121400C00303409294BD8C472FA
:103420000C2B4DD094792509290030319F2C00D9DF
:10343000073101730D2B43D00F2121400C00303494
:10344000092901D937310C0044730E2B38D0D179BA
:103450000C09220030329F2900D9073282730F2BCA
:103460002ED00F220A4011003731092A01D83032FC
:103470001100C173102B23D010300023037030BD16
:1034800007345AE737310C0063E707316CE737310F
:103490000C0074E707317DE737310C0085E7073111
:1034A0008EE737310C0095E707319DE737310C0087
:1034B000A3E70731AAE737310C00C4720C2BB1D156
:1034C000C018DAE74428002010B588B004000D22A7
:1034D00000216846FFF78AFA0D22002104A8FFF7B1
:1034E00085FA4B236A466846137004A90D2204F03E
:1034F000AFFE1521082220006944FFF77DFA08B0CD
:1035000010BDC046F8B500F047F90C23194DFF2255
:10351000AB6705201849FDF7D9FE184C4022002161
:103520002000FFF763FA4027002301262121144AD7
:1035300066702783A260136063545F3161844539EC
:103540006354104A10496360E2602787A1620B60F0
:103550006362E26204F06CFE80239B052E64EB64E0
:1035600090230A4A0120EA508022094B5202DA6471
:10357000F8BDC046000011501D0500206C21002040
:1035800084001050000110508000105010D0010035
:103590000020115010B501210520FDF735FE10BDAA
:1035A00010B500220021024800F016F910BDC046F7
:1035B0008C210020044B1970002904D08021902315
:1035C000024A8902D15070475D2A02200020115022
:1035D0000B785B0602D14B78052B00D070478A78B8
:1035E000014B1A60FAE7C04600001150F0B5C6461C
:1035F000C87800B58007830F1800012B60D08F7842
:103600000A794B797F213940FC091B024E00134394
:10361000334D32195201AA1897700127674057702D
:1036200000275B055B0DD7701383D076B846CA00C0
:10363000012C32D02B4FBC468F016244BC46AC44B7
:103640006746BA6047461760002932D0264AC9004B
:1036500090466246414451603F223F3393430228E3
:1036600037D0224937190A687F01D3180B602049E7
:10367000EF19FA608B422ED836197601AD19EB7E20
:103680001C499B064A4013438022120613436A6872
:103690001360012080BCB846F0BD174FBC468F01B7
:1036A0006244BC46AC446746BA624746176000298C
:1036B00008D1002364012C196360104BE360E8E734
:1036C0000020E7E70B4AC900904662464144516238
:1036D000C2E75B00C5E7FEF767FDFA68CCE7C046C6
:1036E0006C2100208400105004001050742500202C
:1036F000FF0F1050000010508000105000011050BB
:1037000010B504F095FD10BD10B57F200C002040D1
:103710004000E409110000191A00034B4001C018D1
:1037200000F05AF8012010BD6C2100207F23180002
:1037300000B5084083B00B4204D14B424B41084ACC
:10374000013393668022C9094000064B40184001AE
:103750000021C018120104F0C3FD03B000BDC04633
:10376000002011506C2100207F22130010B50B4067
:103770000A4200D110BDC9095B005B1804485B0117
:10378000C018002300220349C37004F0A9FDF1E72B
:103790006C210020FFF7FFFF80220A4B520410B576
:1037A0001A60094B09491A6010000B689843FBD155
:1037B0008022002152010648FFF718F90922054B23
:1037C0005A6710BD00E0004000F0004008C0004013
:1037D0000000105000001150002310B5C3820133C7
:1037E000828283760161040004F02AFD002804D05F
:1037F00080219023074A8902D150200004F040FD27
:10380000002802D00123237710BD200004F060FDC2
:10381000FAE7C046002011507047C0467047C046C6
:1038200000207047002070477047C0467047C04670
:103830007047C0467047C046024B5878431E9841B7
:10384000C0B27047101C0020024B18784007C00F10
:103850007047C046101C0020F0B5D6464F4646467D
:10386000C0B52F4B07009A461B780E00FF2B50D196
:10387000002941D0002154222A48FFF7B7F800223E
:10388000294C2A4B20001A70FDF7D0FE284B1C60F3
:10389000284C2000143CFDF7D7FE200001F0FAFD73
:1038A000254B264D1C60264B002B04D02800FFF72B
:1038B000C7FA244B18602449002489462149002373
:1038C00088462A7810E043461B6862019B18002B4B
:1038D00012D05B68002B0FD098472A780134E4B2ED
:1038E000511C2300A14209DBA242ECD89B1A5B01C8
:1038F0004B445B68002BEFD100200BE053463100B6
:1039000038001F70FFF7FEFD0028F5D03800FFF7E4
:1039100041FE0120E0BCBA46B146A846F0BDC04613
:10392000A4100020101C0020081C00205E2A022089
:10393000641C00209C100020681C00205C2A0220CF
:10394000412E0010601A00200C8B0010F0B5DE46EE
:1039500057464E464546E0B5C84B91B002931B789A
:10396000FF2B00D13EE1C64BC64E9B465F46C64B81
:103970000DAC0193C54B009335686A69EFF3108174
:1039800072B61368002BFCD0BFF35F8FA9612800CB
:10399000210001F0AFFB6A69AB69BFF35F8F0021C3
:1039A000116083F31088002800D11BE16378082B95
:1039B000E2D89B00FB589F466368002BDCD0A068D0
:1039C0009847D9E77F222179AF4D0A405300EB1881
:1039D0009846C809804440460123303005799D430C
:1039E0000571057903339D430571002A00D100E17B
:1039F0004346A74A1B7D1278934200D3EFE0A54AC5
:103A00005B011568ED18002D00D1EBE0A368627929
:103A10002078AD69A847AFE79F4A1378002B00D103
:103A2000E0E01378013BDBB213701378002BA3D1D5
:103A30000122954D01212B78042013432B70342350
:103A4000EA5C8A43EA54EA5C8243EA540133EA5C62
:103A50008A43EA54EA5C8243EA54237800209B4676
:103A600000F09EFC602223791A40602A00D1EFE02A
:103A7000402A00D1F5E0DB06DB0E012B00D113E17B
:103A8000022B00D1C7E0002B00D0E1E0202A00D1BA
:103A90001CE2002A00D0DBE06379092B00D9D7E0D3
:103AA0007E4A9B00D3589F46774D2B78DB0700D486
:103AB00062E7FFF7BFFE5FE7019BDB78DB0700D41F
:103AC0005AE76068FFF7AAFE56E76F4D2B78DB07D1
:103AD00000D451E728780007C00FFFF7A9FE4BE795
:103AE00023786A4999468B46694B6A4998468A46C3
:103AF00039001A7847460023B04600254E468946CD
:103B000010E053461B686A019B18002B00D176E039
:103B1000DB68300098473A780135EDB2511C2B0034
:103B20008D4244DC9542ECD39B1A5B015B44EFE78A
:103B3000237858499946564B8A4698463100BB46E9
:103B40004E461A7800250023474689460FE0534623
:103B50001B686A019B18002B55D0DB683000984722
:103B60003A780135EDB2511C2B008D4207DC9542AD
:103B7000EDD39B1A009A5B0194466344EDE7019DE7
:103B8000542200212800FEF731FF1022FF21444873
:103B9000FEF72CFF28002022FF2114304E465F46FE
:103BA000FEF724FF00F0F2FBFFF740FEE4E6364D9F
:103BB000542200212800FEF719FF1022FF21281DA2
:103BC000FEF714FF28002022FF21143046464F46FE
:103BD000FEF70CFF00F0DAFB2379AB70CCE6501C4B
:103BE000984213DA11B0F0BCBB46B246A946A046D3
:103BF000F0BDA3686279207800F0E6FBBCE646469B
:103C00004F46214DE6E74E465F46CBE71F4D9B1AD8
:103C10005B015D19FAE67023217A0B4218D1C809BD
:103C200082460F330B405B0098461948EB1853440B
:103C30001B7D00789946834266D216485B01006876
:103C400081469944002A00D15FE14B46002B68D1A0
:103C500020780021FFF76AFD80212078FFF766FDBC
:103C60008AE6104800F09CFB012158460EAAFFF797
:103C7000CDF8002800D07FE6EAE7C046A410002077
:103C8000648A0010681C0020101C00200C8B00109F
:103C90005C2A0220601A00205E2A0220888A001016
:103CA000141C00200D2E0010237A0F2BD0D8CF4AE1
:103CB000EB181B791578AB423ED3691C9942C7DBE0
:103CC0005D1BCB4B6D01ED18686900F069FB0121AC
:103CD00058466B690EAA9847002800D04CE660222F
:103CE000150023791D401A42B2D163790A3B012B9A
:103CF000AED800F055FB63790A2B00D199E1584604
:103D00000EA900F0D9FA37E6431C4B4500DAF7E07C
:103D10004B461B1A5B019946B5488144002A00D1E5
:103D2000F3E04B46586900F03BFB4B4601215846F7
:103D30005B690EAA98479CE7AE4A5B011568ED18CF
:103D4000002DC1D184E7A37999466B789945D6D0E7
:103D50006B78002B00D033E14B466B70002B00D109
:103D60002BE148460138C0B2FFF792FA002800D193
:103D70007EE143780793022B00D079E10122C179DB
:103D8000B1468B11491113400A40302112015B01E9
:103D900013432A78A8468A4313432B7009239A4673
:103DA00082445646BA46C37882781B021343C3182E
:103DB00005938E4B04938E4B08938E4B09938E4B39
:103DC0000A93059BB34200D855E1737801220B2B6F
:103DD00003D13378F278F6187378042B00D044E1DD
:103DE000059B00279B1B9BB20693049B0B921D789F
:103DF000002303931BE0099A7B011568ED18002D41
:103E000000D132E1310058462B69069A9847844622
:103E1000082803D9069A824200D313E1049B013794
:103E20001D78FFB26B1C03979F4200DD1DE1BD4270
:103E3000E1D8039B5D1B089B6D019C466544E1E74F
:103E40006B780CAA02321370584601230EA900F0B9
:103E500049FA91E5E3881A0AD8B20F2A00D9F7E6A1
:103E600066499300CB589F460EA800F09FFA58462B
:103E7000A179FFF795FB02222B7813432B707BE58A
:103E8000E388012B00D0E3E608222B7858469343C1
:103E90000EA92B7000F010FA6EE5022029780CAB09
:103EA0009A1C8B068908DB0F01400B431380584690
:103EB00002230EA900F016FA5EE5E388012B00D07C
:103EC000C6E608222B7813432B7018E7237A0F2BB2
:103ED00000D9BDE6EB181D79444B1B789D4228D2D2
:103EE000444B6D011B685D19002D00D1B0E6686977
:103EF00000F056FA012158466B690EAA9847B8E6B9
:103F0000002A00D0A4E6002399466279022013001B
:103F100003928343012B15D0002A00D098E62B0092
:103F20004344534430331B790CAA9B07DB0F023206
:103F3000BCE75A1CAA4200DA8AE6ED1A2C4B6D0146
:103F4000ED18D4E7E388002B12D1029B1878039B6D
:103F5000012B23D0FFF7EAFB43460221EB18534421
:103F600030331A790A4301211A711A790A431A71F6
:103F70004B46002B00D1FFE4586900F011FA4B4684
:103F800001215B690EAA58469847002000F008FA04
:103F90003523EB5CDB0700D5EEE4B0E6FFF7E4FB8E
:103FA00043460221EB18534430331A798A431A717D
:103FB0001A7903998A431A71DAE7FFF737FC9EE60C
:103FC00000215846FFF7F6FA5846FFF799FBAB7801
:103FD000074903930491054B064998461A780591C1
:103FE000002329001D008A461BE0C0465C2A0220EF
:103FF0000C8B0010601A0020241C0020B08A0010D6
:10400000059B6A011B689B18002B4DD0DB68584646
:10401000984743461A780135EDB2511C2B008D426A
:104020002EDC9542ECD39B1A049A5B0194466344C0
:10403000ECE70CAB9A1C584601230EA9157000F052
:1040400051F999E40B9A012A4FD0002A3CD0002361
:10405000B07804E00133DBB20F71934234D2C1185F
:10406000C9B241440D79FF2DF4D04E46454657461E
:1040700000236B70ECE54E465746FFF7D5FB3EE656
:104080005546542200212800FEF7B0FC1022FF21E3
:10409000281DFEF7ABFC28002022FF211430FEF77C
:1040A000A5FC039BAB7057E65546FAE7FEF7AAFE60
:1040B000021E00D1CCE5D37891781B020B43584601
:1040C0000EA900F00FF9D4E565463B002A00310047
:1040D0000A9800F07FFEAC46049B039A1B78664466
:1040E0000133934200DB6CE6BFE7174B2969994225
:1040F000ADD1079AABE7FFF793FB021E00D1A7E50E
:10410000584613780EA900F0EDF8B2E52189FFF7C3
:10411000C3F8021EF4D19BE5022A0FD0FFF782FB01
:10412000021EC8D194E5FFF7AFF8021E00D18FE55B
:10413000122358460EA900F0D5F89AE5FFF7A8F823
:10414000021EB8D184E5C0469D470010F8B5574619
:104150004E46DE4645460C00E0B516001F00002A1C
:104160003CD0702398461E4B00259B461D4B9A461B
:104170001AE05B461B78200099465346997800F078
:10418000EBFD00281CD021004846FFF72FFA00283D
:1041900016D0A378DA09012A19D00A9A01351370CA
:1041A0002378E418B54219DA6378052B08D1E3784F
:1041B0009B079B0FBB4203D14246A3781A42D8D03B
:1041C0000020F0BCBB46B246A946A046F8BD0B9AFB
:1041D000013513702378E418B542E5DB0120F0E7E0
:1041E000A4100020101C0020702270B58B780C00E9
:1041F0001A4201D0002070BD064B20001D78064BEE
:10420000997800F0A9FD0028F4D021002800FFF7DC
:10421000EDF9F0E7A4100020101C00200B007F2017
:1042200010B51840DB0934334000044AC018044B71
:104230001168C01800F04CFD10BDC046641C002081
:10424000101C00200B007F2010B51840DB09343310
:104250004000044AC018044B1168C01800F060FD0B
:1042600010BDC046641C0020101C002070B57F24C7
:104270000F480C4064000419CD09641930342079CA
:10428000C00701D5002070BD0126257909483543B6
:1042900000782571FFF738FA0028F4D1012223793C
:1042A000934323712379033293432371EAE7C04692
:1042B000101C0020A410002070B5094C0600082234
:1042C00020000D00FEF798FB00238021E360A3602F
:1042D0002B783000994300220023FFF7C7FF70BD01
:1042E000F01B0020F8B5CE4647469046254E80B5D7
:1042F0008146082230000D001F00FEF77DFB43467B
:10430000B3600023F381EC79AB7924021C43231CB6
:10431000BC4200D93B1C9FB2B381002C0DD0002FB2
:1043200017D04246002A2BD0402F1BD89FB233789B
:104330007F2B1CD80021144A0FE080212B7800220B
:10434000994348460023FFF791FFC0BCB946B046E9
:10435000F8BD7F230022317899433B004846FFF7A0
:1043600085FFF2E740239FB233787F2BE2D9064CDA
:104370003A0041462000FEF73FFB80212200ECE797
:104380000020E2E7F01B0020B01B002010B5142233
:1043900000210248FEF72AFB10BDC046F01B00209A
:1043A000014B18617047C046F01B002010B5054C4A
:1043B000010008222000FEF71FFB0023A360E3603A
:1043C00010BDC046F01B002070B5384C1D0023788E
:1043D0000600DA09C9098A4210D00020002D00D059
:1043E00070BD21003000FFF7F3F82369002B03D0E4
:1043F00022000321300098470120F1E77F2B06D8E7
:10440000A068002834D02A002949FEF7F5FAE2898D
:10441000A1685219E38892B24919E281A1609342DE
:1044200014D03F2D12D9A389981A051C80B24028B8
:104430002AD82078ADB27F2828D800219A4232D0DD
:104440001B4A2B003000FFF711FFC9E72369002B3F
:1044500005D0220002213000984700280AD0802190
:1044600023780022994330000023FFF7FFFEB7E7CF
:104470000020B5E700213000FFF758F93000802117
:10448000FFF754F90120ABE74025D2E79A4207D065
:10449000074C2A002000FEF7AFFA80212200D0E767
:1044A00080210022CDE70022CBE7C046F01B002090
:1044B000B01B002070B50400FFF7BEF9002800D142
:1044C00070BDFFF7C1F90028FAD1C8236343124D2C
:1044D000EE18F1780029F3D010335D19280000F0B0
:1044E000F3FD3F28ECD90020F178FFF797FE002874
:1044F000E6D0280000F0E8FDF1783F2807D9074B07
:10450000E201D21800204023FFF7B0FED8E70020D8
:10451000FFF798FED4E7C046E81A0020641A00208E
:1045200010B50400FFF788F9002801D1002010BD64
:10453000FFF78AF90028F9D1C8226243024B013003
:104540009B181B791840F2E7E81A0020C82310B521
:1045500043430248181800F099FD10BDF81A0020D6
:10456000F8B5C824802344431C4F103405003C197F
:104570005B029A4200D31A4A200092B200F008FE71
:104580000600FFF759F9002801D13000F8BDFFF708
:104590005BF90028F9D1C8236B43FF18FB78002B87
:1045A000F3D0200000F090FD3F28EED90020F978EC
:1045B000FFF734FE0028E8D0200000F085FDF978F0
:1045C0003F2807D9074BEA01D21800204023FFF704
:1045D0004DFEDAE70020FFF735FED6E7E81A0020A7
:1045E000FFFF0000641A0020F8B50400FFF724F96B
:1045F000002801D10020F8BDFFF726F90028F9D1E5
:10460000C82565432E00134F2436F619300000F0FC
:104610003DFD0028EED07F190020B978FFF7FEFDA0
:104620000028E7D00C4DE401651929004022300034
:1046300000F0AEFDB978041E08D003002A00002067
:10464000FFF714FE0028D5D02000D4E70020FFF7A4
:10465000F9FDCFE7E81A0020A41A002070B5C8249D
:1046600044430C4B0500E41880235B029A4200D3BC
:10467000094A200092B200F051FE0600200000F02E
:1046800005FD3F2801D8300070BD2800FFF7ACFFC2
:10469000F9E7C0460C1B0020FFFF0000C82310B53F
:1046A00043430248181800F00FFD10BD0C1B0020FA
:1046B000F0B50025184C83B0C82200212000FEF779
:1046C00095F9164B21001D70FF236371E1235B02F6
:1046D000A360200008234022A37338310095073BD4
:1046E000103000F09DFC270001232100200026004F
:1046F000402278310093B837243000F091FCC03666
:104700003800FCF793FF3000FCF790FFE56127626B
:104710002663656303B0F0BDE81A0020E41A0020A8
:104720000A4A116B136A00290CD0002B07D0002312
:10473000D3615363136300231362012070475363F3
:104740001363FAE7002BF8D0D161F4E7E81A0020F0
:1047500070B50F4C052200212000FEF747F90D4DE2
:104760002B78DA0707D50C4C9B070CD501212000CC
:1047700000F0B0FE70BD2000103000F08BFE2B78F2
:10478000054C9B07F2D4200000F084FEEEE7C04603
:10479000E81A0020E41A00200C1B0020F0B54B7929
:1047A000060083B0022B02D18B79022B03D00025A7
:1047B000280003B0F0BD204FBB78002BF7D18B78D9
:1047C00009253B700C780C196378242B07D00CE07A
:1047D0002378E4185D196378ADB2242B05D1954296
:1047E000F6D90020FFF766FEE2E71A00052B15D088
:1047F000042AF6D163790A2BF3D1104B2778019361
:104800000133009330000223E119023AFFF79EFCC6
:104810000028CCD00E35ED19ADB2E2E72100300012
:10482000FFF7E2FC0028C2D0A3787B7023785D19E3
:10483000E4186278ADB2DBE7E81A0020EA1A00203B
:10484000F8B5602314001278050013400020202BD7
:1048500007D1304A6379277916781B023B439E4281
:1048600000D0F8BD6378222B1AD007D8202B34D083
:10487000212BF6D101293ED00120F2E7232BF0D1E4
:10488000012940D00329F7D1234B002BF4D0E17844
:10489000A37809020020194300E000BF0120E0E7EF
:1048A000012930D00329E7D101252E00A378E4782F
:1048B000023924021C431471264024321000714036
:1048C00000F008FE154B002BD6D062080020310006
:1048D0002A4000E000BF0120C3E701290BD00329D3
:1048E000CAD10F4B002BC7D0083200201100FEF7B1
:1048F000ADFA0120B5E7072321002800094AFFF798
:10490000F1FC0120ADE721002800FFF7D5FC0120D4
:10491000A7E7C046E81A00200000000000000000E1
:104920004D2E0010F01A0020F0B54F464646D646F0
:10493000C0B5364D8046EA780C001F008A423CD054
:10494000AB788B4210D00020E0BCBA46B146A846F6
:10495000F0BD2F4B002B04D02E4800F0ADFB0028FB
:1049600051D00020FFF7A6FDAB78A34201D0012073
:10497000EAE7294B002B02D0002000E000BF002016
:10498000FFF732FE0028F2D1244C200000F07EFB1D
:104990000028ECD1002FEAD0BF06E8D1243C4046E5
:1049A000A178FFF73BFC0028E1D00023002240461D
:1049B000A178FFF75BFC0120C6E79AB210239A4664
:1049C000174EAA443100504600F0A8FC154B002BAE
:1049D000BFD06B79FF2BBCD0002FBAD0F219914613
:1049E00003E001364E45B4D06B7932789A42F8D163
:1049F000504600F061FB0028F3D15346103B597933
:104A000000E000BFEDE700E000BFAAE7E81A0020E1
:104A100000000000F81A0020000000000C1B00201D
:104A2000641A0020000000009322F0B5134C85B0FA
:104A3000002120009200FDF7D9FF230020008026EE
:104A400040270F4D4D337600FF33293002950093F8
:104A500000220023002103970196FF3000F0D4F9D3
:104A60004035201D283400230122002103970295A0
:104A70000196009400F0C8F905B0F0BDAC1D00200F
:104A80002C1D002010B5054C200000F0F3F920008B
:104A90002538FF3800F0EEF9012010BDD41E0020AB
:104AA00070B5084C002520003130FF30257000F033
:104AB000F1FC20000C3000F0EDFC2A23FF33E5541C
:104AC000657170BDAC1D0020F8B557464546DE4601
:104AD0004E46E0B54B7980460F00FF2B5BD1404B33
:104AE00099462A234946FF33CB5C002B53D14E799C
:104AF000002E50D1BB783C780B703B793C19002BD1
:104B000046D098235B004B449A460C234B449B466B
:104B1000A51803E0AC423BD22378E4186378052B58
:104B2000F8D1AC4234D221004046FFF75DFB0028AB
:104B300031D0A3780136F6B2DB09012B32D05046D2
:104B400000F0A8FC2A234946A278FF33CA546379AF
:104B500022791B021343234A5B0594465B0D942183
:104B600063445A4253414A4602204900525C5B006A
:104B7000824313434A46535451464046083900F095
:104B8000E3F9002807D02378E4183B79B342C5D86D
:104B9000E01B80B200E00020F0BCBB46B246A94654
:104BA000A046F8BD584600F075FC5A46A3780C3A6A
:104BB0005371637921791B020B430A495B058C46CB
:104BC0005B0D634459424B41022011795B008143E4
:104BD0000B43594600200839137100F081F9D2E7E0
:104BE000AC1D002000FEFFFFF8B52A2506001F4877
:104BF000FF35455D1F008D4215D043798B4201D0B2
:104C00000020F8BD1A4B002B04D039040020090CF9
:104C100000E000BF174C3000210000F061F90028CF
:104C20001DD00120EDE79A235B00C35A002B0DD164
:104C3000114B002B04D000201049BAB200E000BF95
:104C400030000F4900F080F90120DAE796235B007D
:104C5000C1583130BAB2FF3000F060FBE8E73A00EB
:104C60002100300000F008F90120CAE7AC1D002047
:104C700000000000B01D0020000000002C1D0020DE
:104C8000D41E002000B5030083B0002910D00020FE
:104C9000012B07D80A78002A04D00C48C2540120FE
:104CA000012A01D003B000BD1800FEF7D5FDF9E7D9
:104CB00001236A46002001A99380FEF7CDFD00285C
:104CC000F0D00122014B1A70ECE7C046041C002012
:104CD000037870B5DB0704000E00DD0F002B17D141
:104CE00003785B0701D5280070BD012130004942DF
:104CF00003F0DEFA2378DB07DD0F002B0AD12378DF
:104D00005B0708D40422237801251343237002E0B3
:104D10000025E8E70025300003F0A2FAE3E7C046EB
:104D200070B50C00012106004942200003F0C0FAD2
:104D300033785B07DD0F002B04DB200003F090FAD3
:104D4000280070BD3378DB0704D404223378934302
:104D50003370F2E70025F0E7437902791B02134331
:104D6000C2785B0592075B0D920F022A1DD0032AC1
:104D70000CD00020012A08D102394A425141124A7E
:104D80009446614499424041C0B2704702394A1E7C
:104D900091410E4A494211408022D200944600209F
:104DA000614499424041C0B2EFE7022905D000209A
:104DB00040229A424041C0B2E7E7054A9818434270
:104DC0005841C0B2E1E7C046FF03000040FCFFFFCE
:104DD00000FEFFFF8A1870B5914207D27F264C78FB
:104DE000052C04D00C7809198A42F8D870BD34001B
:104DF0008D782C4064000419ED0963550C7809196D
:104E00008A42ECD8F2E7C046F0B5C64600B582B09B
:104E1000150008AA40CA040017886A46928D01202E
:104E200090460A00217802408143200011432170FE
:104E30003A00009331000123083000F0F1F8002E11
:104E400001D0002F08D10A9B012063604346638094
:104E500002B080BCB846F0BD26001C363000FCF71E
:104E6000E5FB0023002D01D0330000266361A6611D
:104E7000E9E7C04601207047F8B502240B78070027
:104E80001C4063425C41144B64421C40134B0800BD
:104E90009C4608300D001600644400F0F7F8002826
:104EA00007D1002E05D0344203D101242B781C42B7
:104EB00001D00020F8BD38006978FFF7AFF900286D
:104EC000F7D02B781C42F4D10023002238006978F7
:104ED000FFF7CCF9EEE7C04640FEFFFFFF01000000
:104EE000F8B50D000835060028000C0000F0CEF8DB
:104EF000002803D0012723781F4201D00020F8BDED
:104F000030006178FFF78AF90028F7D0280062881E
:104F1000616800F03DF9237805001F4000280BD0A0
:104F2000002FEBD10300626830006178FFF79EF933
:104F30000028E3D02800E2E7002FDFD130006178BD
:104F4000FFF780F9DAE7C046F8B5CE46474680B5A8
:104F50008A8906000C000B78002A07D101251D4222
:104F600040D00020C0BCB946B046F8BD9B0733D442
:104F70002A4B4025994627000837380000F0A4F84E
:104F80008542EED80122237890461A42E9D13000BA
:104F90006178FFF743F90028E3D0380000F094F877
:104FA000424623781A40854231D8002AD9D14A4650
:104FB000638802401D1C934200D9151CADB200222B
:104FC0006178002D00D062682B003000FFF74EF9A9
:104FD0000028C6D02800C5E7FE2380251B0299467D
:104FE000AD00C8E74978FFF719F90028B9D0237850
:104FF0001D42B6D1638800226178002B00D0626820
:105000003000FFF733F90028ABD06088AAE7002A08
:10501000A7D130006178FFF715F9A2E7C0FF0000C3
:10502000F0B5C64600B504006846057E8020884677
:1050300017001E000002824226D8E068002803D034
:105040000121494203F034F92069002803D00121ED
:10505000494203F02DF94346236073045B0CED03D2
:105060001D430023E0686381A780E5802381002839
:1050700001D003F0F5F82069002801D003F0F0F822
:10508000012080BCB846F0BD0020FAE710B50489C5
:1050900041898288A3B288B28C4207D31B1A9BB283
:1050A000101C9A4200D9181C80B210BD5100091A78
:1050B0005B189BB2F4E7C04603894089181A434243
:1050C0005841C0B27047C04610B5048941898288F2
:1050D000A3B288B28C4207D31B1A9BB200209A421B
:1050E00001D9D21A90B210BD5100091A5B189BB2B7
:1050F000F4E7C04670B5040000690E00002803D034
:105100000121494203F0D4F825896089A288A9B217
:1051100083B2854232D3CD1AADB2002D28D0AA4237
:1051200008D291422FD3891A8BB263819A4203D855
:105130009B1A9BB29A42FBD9E28821685204520C16
:1051400053433000C918FDF757FC63890125591CEA
:1051500089B2A2888B420DD900215200891A89B2E6
:1051600020696181002801D003F07AF8280070BD21
:10517000618989B252009142F2DBEFE75500ED1AE6
:105180004D19ADB2C9E789188BB26381CEE7C0462D
:10519000F0B546464F46D646C0B50600006989467A
:1051A0009046002803D00121494203F081F831895B
:1051B0007289B5888BB294B2914254D31F1BBFB28F
:1051C000002F4AD0BD4205D2AB4251D25B199CB2EE
:1051D0002F0074814346B8453DD89FB2A54203D8FD
:1051E000641BA4B2A542FBD9F28831685204520C68
:1051F000904662432B1B9BB2891842469F4225D999
:1052000053439BB21A0048469A46FDF7F5FB4346C6
:1052100048467D1B64195C4331685044A2B2FDF7D7
:10522000EBFB7189B588CB199BB26A00994216D9FC
:105230009B1A9BB230697381002801D003F010F8EB
:105240003800E0BCBA46B146A846F0BD48467A43AD
:10525000FDF7D2FBE5E73B1CBFE773899BB26A0011
:105260009342E7DBE4E76F003F1BDF19BFB2A7E71C
:105270005B1B9CB2ACE7C046F8B50400C0680E00EA
:10528000002803D00121494203F012F82589208922
:105290006189A288ADB283B28FB2884229D3DB1B69
:1052A0009BB29A4209D8E779FF0906D1E068002845
:1052B00001D002F0D5FF3800F8BD2B0095421DD378
:1052C0009B1A9BB29342FBD2E28820685204520C94
:1052D00053433100C018FDF78FFB6B1C9BB2A288B3
:1052E0009D4217D9002352009B1A9BB201272381AC
:1052F000DCE75100C91B5B189BB2D2E7E28820684B
:105300005204520C53433100C018FDF775FB0135B0
:10531000A288ABB252009342E8DBE5E7F0B54E4617
:105320005746DE464546E0B589460600170083B07D
:10533000002A67D0C068002803D00121494202F04A
:10534000B7FF3389F2799BB298467389B5889BB2CF
:10535000D20940D198455ED26A00D31A43449BB229
:10536000AB425DD2EB1A1A1C9BB2BB4200D93A1C6D
:1053700097B27B1B9BB20193F3885B045B0C9A464C
:105380004346DB199BB29B464446A84503D3641BA6
:10539000A4B2AC42FBD25346634330682D1BADB27E
:1053A000C018BD424BD3524649467A43FDF724FB11
:1053B000B3885B00D84501D89B4503DB5A46D31A16
:1053C0009BB29B465B463D003381F06800281AD0B3
:1053D00002F046FF17E0F2885204520C9246AF42A8
:1053E00020D298454DD34246D21A92B26900781B1A
:1053F00080B2D21901908A4233DA4346FB189BB23D
:105400009B46C1E70025280003B0F0BCBB46B2466E
:10541000A946A046F0BD4246D31A9BB2AB42A1D3E7
:105420000025D2E7002DD0D07F1B574398465A194C
:10543000002392B2B94493462F000193A4E7534648
:105440005D43ADB22A004946FDF7D6FA019B29001B
:10545000E21853465A43306892B24944FDF7CCFAF9
:10546000A6E75A1992B29346D21B92B29046934243
:105470000CD94346591A8BB29846FB189BB29B46EF
:1054800082E76900CA1A424492B2B0E7914200DD55
:105490007AE7EEE710B50400C068002803D00121C8
:1054A000494202F005FF2069002803D0012149424A
:1054B00002F0FEFE0023E06863812381002801D012
:1054C00002F0CEFE2069002801D002F0C9FE0120C2
:1054D00010BDC04670B50400C0680D00002803D0A0
:1054E0000121494202F0E4FE2069002803D0012195
:1054F000494202F0DDFE7F21E379ED011940E068C9
:105500002943E171002801D002F0AAFE2069002899
:1055100001D002F0A5FE012070BDC046F0B5DE4608
:1055200057464E46454690460022E0B585B01E00DF
:105530000EAB1B7807009B460368DA6601325960A0
:10554000DA66002E60DD0279594692029246012207
:105550004A4052029446802291465A468024039241
:105560006246BB46002010214746B446751EA40083
:105570000192421B160072427241019E5242164035
:1055800002963E5CB0465646424616433200029EA4
:1055900016431E61019E5A6B1142FCD04A469A582E
:1055A00001969246002A0AD1A84228D00022013052
:1055B00092468445DDD1039B5F469B4616E05A6DBB
:1055C000012290465A6B2242FCD01A6E4246019646
:1055D000002AEBD0039B5F469B465346002B15D019
:1055E0005346DB0712D453461B070FD55B463B716E
:1055F00005B0F0BCBB46B246A946A046F0BD039A32
:10560000002AD3D19046DDE70020EFE70120404299
:10561000ECE7C046F8B5DE4657464E46454683465B
:10562000E0B505200C00FCF7B7FC0600600821007F
:105630008019FCF7BFFE430098468044070005210F
:105640004046FCF7B7FE3B1A9A461E4B8146700057
:1056500080199C4231D81C49FCF7ACFE451C5B46C6
:105660001C680023E366226804335A400233134067
:1056700080225201A21813605346E3614B46236215
:10568000434601204F2B03D950214046FCF792FEA0
:10569000A023E050E36F39005D400C4B2D042D0C2E
:1056A000E3181D6001233000E366FCF783FEF0BCC5
:1056B000BB46B246A946A046F8BD0549FCF77AFEAE
:1056C000451CCCE73F420F00809698007C100000FC
:1056D00040787D010F4A70B5821A531E9A410E4BD5
:1056E000D20008321A600D4B0D4C1A601500236869
:1056F0009D432B1EFAD166240268FF340571D566DE
:105700001460633C8833FF3CD5639563D450FFF746
:1057100081FF70BDB010002000E0004000F00040AC
:1057200008C0004010B582B06C46247C0094FFF79E
:10573000F5FE02B010BDC0460000000000000000F1
:105740000B4A13681868203080F30988022080F320
:105750001488BFF36F8F3FBCAE4608BC04BC62B672
:105760001847C046C046C046C046C046C046C046B0
:10577000AC25002000000000000000000000000038
:10578000EFF30980164B1A6820381060F0C04446C9
:105790004D4656465F46F0C00D221207146E556EF8
:1057A000566F176F3038F0C008B572B601F068FA5E
:1057B00062B60CBC116808681030F0C8A046A94653
:1057C000B246BB4680F309880D2212073038F0C874
:1057D0001466556656671767F0C81847C046C04636
:1057E000AC25002010B5FBF765FCC046D02300B502
:1057F0001B061A6D83B0D20704D501219A6D1A6D6C
:105800001142FBD1D023FF221B061A650023114A47
:1058100001931168EFF3108C72B60B68002BFCD06B
:10582000BFF35F8F00230C48126801680360BFF369
:105830005F8F13608CF31088084B01AA186800F082
:1058400001FB019B002B03D08022054B52051A60FF
:1058500003B000BDA825002074290220DC29022005
:1058600004ED00E07047C04610B58024031F6404B7
:105870001C60043B19600349043B1960143B403829
:105880001A6010BDE55700108022044B52051A60C3
:10589000BFF34F8FBFF36F8F7047C04604ED00E03A
:1058A00072B6044A136801331360BFF34F8FBFF31E
:1058B0006F8F704770290220034A1368013B136001
:1058C000002B00D162B6704770290220EFF31080E0
:1058D00072B6704780F310887047C04610B5FFF766
:1058E000F5FF040001F0BAF9002803D08022034B31
:1058F00052051A602000FFF7EDFF10BD04ED00E037
:10590000002310B5084A094C052023601360FCF7FA
:1059100043FBFA218900FCF74DFD054B0138186067
:105920000723236010BDC04618E000E010E000E04F
:1059300014E000E0FF221F4B1204196810B50A435F
:105940001A60FF22196812060A431A601A490E20CB
:1059500001F06AFE19490F2001F066FE18490B207C
:1059600001F062FEFFF7CCFF0022164B1A60D02335
:105970001B06154A1C681470FF221A651A6DD2079F
:1059800004D501219A6D1A6D1142FBD10F34FF210C
:105990002000FBF795FD20000C49FBF76DFC012171
:1059A0002000FBF731FCFFF7CBFE01F069F9FBF7B4
:1059B00081FBC04620ED00E081570010DD5800104B
:1059C0006558001070290220B8100020ED57001013
:1059D000D02310B51B061868074B1B78834200D0F4
:1059E00010BDEFF30583002B02D05B00C018F7E772
:1059F00001F0ACFBF4E7C046B810002010B503007E
:105A00000268154882B00478D020000600688442FD
:105A100008D0BFF35F8F0023136081F3108820BF8D
:105A200002B010BDBFF35F8F0020106081F31088BB
:105A30000A4A1B6810680A4A944663449A105C2B11
:105A400000D9183A012301215B42914000930122C1
:105A5000002300F04DF9E3E7B8100020DC29022014
:105A600000FFFF2F0A002B4930B58C46036883B036
:105A700063449C105C2B00D9183C0121264BA140AB
:105A80001C78D0231B061B689C421FD040BF234DAF
:105A900003682C68A34234D02368002BFCD0BFF3EA
:105AA0005F8F1F4C23680B4323602B68BFF35F8F0E
:105AB000002119600368D020002100064165BFF372
:105AC0005F8F196082F3108803B030BD40BF036858
:105AD000BFF35F8F00241C6082F31088EFF305830F
